:020000040800F2
:10000000B007002005010008290100082B010008A5
:100010002D0100082F010008310100080000000038
:100020000000000000000000000000003301000894
:10003000350100080000000037010008ED04000849
:100040003B0100083B0100083B0100083B010008A0
:100050003B0100083B0100083B0100083B01000890
:100060003B0100083B0100083B0100083B01000880
:100070003B0100083B0100083B0100083B01000870
:100080003B0100083B0100083B0100083B01000860
:100090003B0100083B0100083B0100083B01000850
:1000A0003B010008050600083B010008F9040008B0
:1000B0001D0600082D070008590800083B0100082C
:1000C0003B0100083B0100083B0100083B01000820
:1000D0003B0100083B0100083B0100083B01000810
:1000E0003B0100083B0100083B010008DFF810D08D
:1000F00000F0F0F800480047A5090008AFF30080C1
:10010000B00700200D488047DFF83400016841F453
:10011000E0210160BFF34F8FDFF82800DFF82810DF
:1001200001600A4800477047FEE7FEE7FEE7FEE78A
:10013000FEE7FEE7FEE7FEE7FEE7FEE72701000831
:1001400024ED00E00CED00E00003FA05ED000008EE
:10015000F0B480EA0102D40F4200B2EB410F02D2A8
:100160000246084611464A0042D0C30DDDB2C1F333
:10017000C752AD1A202D35DAC1F3160141F4000241
:1001800004B15242C5F1200602FA06F12A41104498
:10019000B3EBD05F23D0C4B1012DA0EBC35009DC79
:1001A000F0BC4FF0004202EAC352DBB200F500009F
:1001B00000F061B8400000F1807000EBC350A0F186
:1001C000807040EAD170490009E0490841EAC071F5
:1001D000A0EBC35000F50000400800EBC350F0BC9A
:1001E00000F040B86142012202EB4101001BF6E73A
:1001F000F0BC704781F00041AAE780F00040A7E71B
:1002000080EA010210B502F00043400022D04A000B
:100210001FD0010E01EB1261C0F35600C2F356026B
:1002200040F4000042F40002A0FB022000047F39E9
:10023000140400D0401C50EA124001D44000491E72
:10024000C2B20C0604EBD010401C4008802A02D039
:1002500003E0002010BD20F00100002900DA00209A
:10026000184310BD0029A8BF7047401C490008BFB3
:1002700020F00100704710B4B0FA80FC00FA0CF0D6
:1002800050EA010404BF10BC704749B1CCF120040E
:1002900021FA04F411FA0CF118BF0121214308439B
:1002A000A3EB0C01CB1D4FEA00614FEA102042BFC7
:1002B000002010BC704700EBC35010440029A4BFBD
:1002C00010BC7047401C490008BF20F0010010BC62
:1002D00070470000064C074D06E0E06840F001035F
:1002E00094E8070098471034AC42F6D3FFF702FFBA
:1002F000C0090008E009000870B58D1810F8014B1E
:1003000014F0030201D110F8012B231106D110F8CB
:10031000013B03E010F8016B01F8016B521EF9D1AB
:10032000ABB110F8012B04F00C048A1A0C2C03D08A
:10033000A2EB84129B1C08E010F8014BA2EB0422F4
:10034000F8E712F8014B01F8014B5B1EF9D5A94201
:10035000D4D3002070BD000070B5194C83202060FC
:1003600000256560A56017486060012000F02EF848
:1003700061680843606014490D60086840F002003D
:100380000860206840F48030206020688003FCD53D
:10039000206840F08070206020688001FCD5606893
:1003A00020F003006060606840F0020060606068F8
:1003B00040F480006060086840F01000086070BD84
:1003C0000010024000841D0000200240012804D0DB
:1003D000B0F5807F03DD012102E000202CE0002148
:1003E000802801DD012200E000220A44402801DDCE
:1003F000012100E000210A44102801DD012100E074
:1004000000210A44082801DD012100E000210A44FE
:10041000042801DD012100E000210A44022801DD59
:10042000012100E000211144012801DD012000E04C
:1004300000200844C01D0001702800D10020704732
:100440002DE9F04105460E46002024490860244964
:10045000086000242EE006FB04F7FA1707EB92620F
:100460009211A7EB82121F4B53F8221055F824006B
:10047000FFF7C6FE8046194801684046FFF768FE50
:100480001649086006FB04F7FA1707EB926292110F
:10049000A7EB8212144B53F8221055F82400FFF7F3
:1004A000AFFE80460E4801684046FFF751FE0C49FA
:1004B0000860641C402CCEDB094801680068FFF727
:1004C0009FFE0446054801680068FFF799FE07464D
:1004D0002146FFF73DFEBDE8F08100000403002047
:1004E00008030020040100200402002001480068E5
:1004F00000470000AC03002070B53B4908883B4C26
:1005000082073B4DA4F12006A4F1800018D50A888B
:1005100022F002020A800178012901D1006A804795
:1005200028888107334802D40088208003E00088AF
:100530002188401A3080288880F00200288070BD11
:100540000A88520718D50A8822F004020A804178E6
:10055000012901D1406A804728888106264802D4B3
:100560000088608003E000886188401A70802888D5
:1005700080F02000288070BD0A88120718D50A88EC
:1005800022F008020A808178032901D1806A80471D
:1005900028888105194802D40088A08003E00088DB
:1005A000A188401AB080288880F40070288070BD2F
:1005B0000A88D206FBD50A8822F010020A80C17888
:1005C000012901D1C06A8047288881040C4802D4DF
:1005D0000088E08003E00088E188401AF0802888E5
:1005E00080F40050288070BD102C01408C03002046
:1005F000202C0140342C0140382C01403C2C01407F
:10060000402C01400348018821F00101018002488B
:1006100000690047102C01400C03002070B54FF01A
:100620008045288AC10740480AD0A989C90707D050
:10063000298A21F0010129824069BDE87040004704
:10064000298A394C8A07384904F18804A4F1200624
:10065000497916D52A8A22F002022A82012901D17B
:10066000006B8047288C800702D4A88E208003E08E
:10067000A88E2188401A3080288C80F002002884BF
:1006800070BD2A8A520716D52A8A22F004022A82CD
:10069000012901D1406B8047288C800602D4288F25
:1006A000608003E0288F6188401A7080288C80F079
:1006B0002000288470BD298A090717D5298A21F0CE
:1006C000080129828179012901D1806B8047288C1A
:1006D000800502D4A88FA08003E0A88FA188401ACB
:1006E000B080288C80F40070288470BD298AC906E7
:1006F000FBD5298A21F010012982C179012901D174
:10070000C06B8047288C800403D4B5F84000E0809B
:1007100004E0B5F84000E188401AF080288C80F4AD
:100720000050288470BD00000C03002070B54349C0
:100730000888C20742480BD00A1F1288D20707D088
:100740000A8822F001020A808069BDE870400047F3
:100750000A883B4C3B4D04F190049207A4F120061B
:1007600018D50A8822F002020A80017A012901D1F3
:10077000006C804728888107334802D40088208095
:1007800003E000882188401A3080288880F0020029
:10079000288070BD0A88520718D50A8822F0040202
:1007A0000A80417A012901D1406C8047288881065E
:1007B000264802D40088608003E000886188401ADF
:1007C0007080288880F02000288070BD0A88120779
:1007D00018D50A8822F008020A80817A012901D1FD
:1007E000806C804728888105194802D40088A08041
:1007F00003E00088A188401AB080288880F4007047
:10080000288070BD0A88D206FBD50A8822F0100223
:100810000A80C17A012901D1C06C804728888104EF
:100820000C4802D40088E08003E00088E188401A88
:10083000F080288880F40050288070BD10040040AB
:100840000C03002020040040340400403804004021
:100850003C0400404004004070B543490888C2078A
:1008600042480BD00A1F1288D20707D00A8822F00C
:1008700001020A80C069BDE8704000470A883B4C0D
:100880003B4D04F198049207A4F1200618D50A887C
:1008900022F002020A80017B012901D1006D80470C
:1008A00028888107334802D40088208003E000882C
:1008B0002188401A3080288880F00200288070BD8E
:1008C0000A88520718D50A8822F004020A80417B60
:1008D000012901D1406D804728888106264802D42D
:1008E0000088608003E000886188401A7080288852
:1008F00080F02000288070BD0A88120718D50A8869
:1009000022F008020A80817B012901D1806D804795
:1009100028888105194802D40088A08003E0008857
:10092000A188401AB080288880F40070288070BDAB
:100930000A88D206FBD50A8822F010020A80C17B01
:10094000012901D1C06D8047288881040C4802D458
:100950000088E08003E00088E188401AF080288861
:1009600080F40050288070BD100800400C03002067
:100970002008004034080040380800403C0800408F
:100980004008004002E008C8121F08C1002AFAD13E
:1009900070477047002001E001C1121F002AFBD1FF
:1009A00070470000FFF7D8FC02210348FFF748FD1D
:1009B0000249086000BFFEE704000020000000209C
:1009C000E009000800000020B0030000F802000861
:1009D0009C0A0008B00300200004000094090008ED
:1009E000320001203F803F6DC47E3FBE147B3F0B31
:1009F000FA743F5E836C3F98C5613F31DB543F031F
:100A0000E4453FF304353F9967223FDA390E3FEA68
:100A10005AF13E15EFC33E31A0943EC2C5473E3663
:100A2000BDC83D42110812BD1012BE1812BE2012E0
:100A3000BE2812BE3012BF3812BF4012BF4812BFCC
:100A40005012BF5812BF6012BF6812BF7012BF7839
:100A500012BF8031082110211821202128213021A6
:100A600038214021482150215821602168217021DE
:100A7000785180223D90219821A021A821B021B851
:100A800021C021C821D021D821E021E821F021F87E
:0C0A900005FF0005FF4001A80100000068
:04000005080000ED02
:00000001FF
